{
  "_format": "hh-sol-artifact-1",
  "contractName": "PriceFeedBase",
  "sourceName": "contracts/BOB/PriceFeedBase.sol",
  "abi": [
    {
      "inputs": [
        {
          "internalType": "address",
          "name": "_redstoneAdapterAddress",
          "type": "address"
        },
        {
          "internalType": "bytes32",
          "name": "_dataFeedId",
          "type": "bytes32"
        }
      ],
      "stateMutability": "nonpayable",
      "type": "constructor"
    },
    {
      "inputs": [
        {
          "internalType": "uint256",
          "name": "value",
          "type": "uint256"
        }
      ],
      "name": "UnsafeUint256ToUint80Conversion",
      "type": "error"
    },
    {
      "inputs": [
        {
          "internalType": "uint256",
          "name": "value",
          "type": "uint256"
        }
      ],
      "name": "UnsafeUintToIntConversion",
      "type": "error"
    },
    {
      "inputs": [],
      "name": "dataFeedId",
      "outputs": [
        {
          "internalType": "bytes32",
          "name": "",
          "type": "bytes32"
        }
      ],
      "stateMutability": "view",
      "type": "function"
    },
    {
      "inputs": [],
      "name": "decimals",
      "outputs": [
        {
          "internalType": "uint8",
          "name": "",
          "type": "uint8"
        }
      ],
      "stateMutability": "pure",
      "type": "function"
    },
    {
      "inputs": [],
      "name": "description",
      "outputs": [
        {
          "internalType": "string",
          "name": "",
          "type": "string"
        }
      ],
      "stateMutability": "view",
      "type": "function"
    },
    {
      "inputs": [
        {
          "internalType": "uint80",
          "name": "_requestedRoundId",
          "type": "uint80"
        }
      ],
      "name": "getRoundData",
      "outputs": [
        {
          "internalType": "uint80",
          "name": "roundId",
          "type": "uint80"
        },
        {
          "internalType": "int256",
          "name": "answer",
          "type": "int256"
        },
        {
          "internalType": "uint256",
          "name": "startedAt",
          "type": "uint256"
        },
        {
          "internalType": "uint256",
          "name": "updatedAt",
          "type": "uint256"
        },
        {
          "internalType": "uint80",
          "name": "answeredInRound",
          "type": "uint80"
        }
      ],
      "stateMutability": "view",
      "type": "function"
    },
    {
      "inputs": [],
      "name": "latestRoundData",
      "outputs": [
        {
          "internalType": "uint80",
          "name": "roundId",
          "type": "uint80"
        },
        {
          "internalType": "int256",
          "name": "answer",
          "type": "int256"
        },
        {
          "internalType": "uint256",
          "name": "startedAt",
          "type": "uint256"
        },
        {
          "internalType": "uint256",
          "name": "updatedAt",
          "type": "uint256"
        },
        {
          "internalType": "uint80",
          "name": "answeredInRound",
          "type": "uint80"
        }
      ],
      "stateMutability": "view",
      "type": "function"
    },
    {
      "inputs": [],
      "name": "redstoneAdapter",
      "outputs": [
        {
          "internalType": "contract IRedstoneAdapter",
          "name": "",
          "type": "address"
        }
      ],
      "stateMutability": "view",
      "type": "function"
    },
    {
      "inputs": [],
      "name": "version",
      "outputs": [
        {
          "internalType": "uint256",
          "name": "",
          "type": "uint256"
        }
      ],
      "stateMutability": "pure",
      "type": "function"
    }
  ],
  "bytecode": "0x60c060405234801561001057600080fd5b5060405161078c38038061078c83398101604081905261002f916100fc565b6100388261004e565b6001600160a01b0390911660805260a052610136565b6001600160a01b0381166100a95760405162461bcd60e51b815260206004820152601e60248201527f4163636f756e742063616e6e6f74206265207a65726f2061646472657373000060448201526064015b60405180910390fd5b803b806100f85760405162461bcd60e51b815260206004820181905260248201527f4163636f756e7420636f64652073697a652063616e6e6f74206265207a65726f60448201526064016100a0565b5050565b6000806040838503121561010f57600080fd5b82516001600160a01b038116811461012657600080fd5b6020939093015192949293505050565b60805160a05161060861018460003960008181608b015281816101c2015261041d01526000818161014301528181610193015281816102c70152818161035c015261045001526106086000f3fe608060405234801561001057600080fd5b506004361061006d5760003560e01c8063313ce56714610072578063370c826b1461008657806354fd4d50146100bb5780637284e416146100c25780639a6fc8f5146100f7578063cce6f5071461013e578063feaf968c1461017d575b600080fd5b604051600881526020015b60405180910390f35b6100ad7f000000000000000000000000000000000000000000000000000000000000000081565b60405190815260200161007d565b60016100ad565b60408051808201825260138152721499591cdd1bdb9948141c9a58d94811995959606a1b6020820152905161007d91906104e8565b61010a610105366004610536565b610185565b604080516001600160501b03968716815260208101959095528401929092526060830152909116608082015260a00161007d565b6101657f000000000000000000000000000000000000000000000000000000000000000081565b6040516001600160a01b03909116815260200161007d565b61010a6102a7565b6000806000806000806000807f00000000000000000000000000000000000000000000000000000000000000006001600160a01b03166326bf15ff7f00000000000000000000000000000000000000000000000000000000000000008b6040518363ffffffff1660e01b81526004016102119291909182526001600160501b0316602082015260400190565b606060405180830381865afa15801561022e573d6000803e3d6000fd5b505050506040513d601f19601f82011682018060405250810190610252919061057d565b9250925092508897506001600160ff1b0383111561028b5760405163eccac09b60e01b8152600481018490526024015b60405180910390fd5b969891976001600160801b039182169790911695509350915050565b60008060008060006102b7610357565b94506102c161040e565b935060007f00000000000000000000000000000000000000000000000000000000000000006001600160a01b0316631b2758ee6040518163ffffffff1660e01b8152600401602060405180830381865afa158015610323573d6000803e3d6000fd5b505050506040513d601f19601f8201168201806040525081019061034791906105b9565b9596949594859450879350915050565b6000807f00000000000000000000000000000000000000000000000000000000000000006001600160a01b0316638c3b990b6040518163ffffffff1660e01b8152600401602060405180830381865afa1580156103b8573d6000803e3d6000fd5b505050506040513d601f19601f820116820180604052508101906103dc91906105b9565b90506001600160501b03811115610409576040516307a4f91f60e21b815260048101829052602401610282565b919050565b60405163227014c160e11b81527f0000000000000000000000000000000000000000000000000000000000000000600482015260009081906001600160a01b037f000000000000000000000000000000000000000000000000000000000000000016906344e0298290602401602060405180830381865afa158015610497573d6000803e3d6000fd5b505050506040513d601f19601f820116820180604052508101906104bb91906105b9565b90506001600160ff1b038111156104095760405163eccac09b60e01b815260048101829052602401610282565b600060208083528351808285015260005b81811015610515578581018301518582016040015282016104f9565b506000604082860101526040601f19601f8301168501019250505092915050565b60006020828403121561054857600080fd5b81356001600160501b038116811461055f57600080fd5b9392505050565b80516001600160801b038116811461040957600080fd5b60008060006060848603121561059257600080fd5b835192506105a260208501610566565b91506105b060408501610566565b90509250925092565b6000602082840312156105cb57600080fd5b505191905056fea2646970667358221220aee19fb1f458226be6a2b162e52b4f69f18dbd4d7d10eb7c8ec6c83064177e0964736f6c63430008110033",
  "linkReferences": {},
  "deployedLinkReferences": {}
}